{
  "address": "0x7F74809e27ba1C8373509c6483493c03aD742BDb",
  "abi": [
    {
      "inputs": [
        {
          "internalType": "address",
          "name": "maxExtract",
          "type": "address"
        }
      ],
      "stateMutability": "nonpayable",
      "type": "constructor"
    },
    {
      "inputs": [],
      "name": "InvalidEOA",
      "type": "error"
    },
    {
      "inputs": [],
      "name": "NotOwner",
      "type": "error"
    },
    {
      "inputs": [],
      "name": "ZeroAddress",
      "type": "error"
    },
    {
      "anonymous": false,
      "inputs": [
        {
          "indexed": true,
          "internalType": "uint256",
          "name": "sectorId",
          "type": "uint256"
        },
        {
          "indexed": true,
          "internalType": "address",
          "name": "owner",
          "type": "address"
        },
        {
          "indexed": true,
          "internalType": "address",
          "name": "registry",
          "type": "address"
        }
      ],
      "name": "Broadcast",
      "type": "event"
    },
    {
      "anonymous": false,
      "inputs": [
        {
          "indexed": false,
          "internalType": "string",
          "name": "key",
          "type": "string"
        },
        {
          "indexed": false,
          "internalType": "address",
          "name": "module",
          "type": "address"
        }
      ],
      "name": "ModuleSet",
      "type": "event"
    },
    {
      "anonymous": false,
      "inputs": [
        {
          "indexed": true,
          "internalType": "uint256",
          "name": "sectorId",
          "type": "uint256"
        },
        {
          "indexed": true,
          "internalType": "address",
          "name": "owner",
          "type": "address"
        },
        {
          "indexed": true,
          "internalType": "address",
          "name": "registry",
          "type": "address"
        }
      ],
      "name": "RegistryUpdated",
      "type": "event"
    },
    {
      "inputs": [],
      "name": "MAX_EXTRACT",
      "outputs": [
        {
          "internalType": "contract IMaxExtract",
          "name": "",
          "type": "address"
        }
      ],
      "stateMutability": "view",
      "type": "function"
    },
    {
      "inputs": [],
      "name": "broadcast",
      "outputs": [
        {
          "internalType": "uint256",
          "name": "id",
          "type": "uint256"
        }
      ],
      "stateMutability": "nonpayable",
      "type": "function"
    },
    {
      "inputs": [
        {
          "internalType": "string",
          "name": "",
          "type": "string"
        }
      ],
      "name": "modules",
      "outputs": [
        {
          "internalType": "address",
          "name": "",
          "type": "address"
        }
      ],
      "stateMutability": "view",
      "type": "function"
    },
    {
      "inputs": [],
      "name": "owner",
      "outputs": [
        {
          "internalType": "address",
          "name": "",
          "type": "address"
        }
      ],
      "stateMutability": "view",
      "type": "function"
    },
    {
      "inputs": [],
      "name": "sectorId",
      "outputs": [
        {
          "internalType": "uint256",
          "name": "",
          "type": "uint256"
        }
      ],
      "stateMutability": "view",
      "type": "function"
    },
    {
      "inputs": [],
      "name": "sectorIdFromCore",
      "outputs": [
        {
          "internalType": "uint256",
          "name": "",
          "type": "uint256"
        }
      ],
      "stateMutability": "view",
      "type": "function"
    },
    {
      "inputs": [
        {
          "internalType": "string",
          "name": "key",
          "type": "string"
        },
        {
          "internalType": "address",
          "name": "module",
          "type": "address"
        }
      ],
      "name": "setModule",
      "outputs": [],
      "stateMutability": "nonpayable",
      "type": "function"
    },
    {
      "inputs": [],
      "name": "updateRegistryOnMaxExtract",
      "outputs": [
        {
          "internalType": "uint256",
          "name": "id",
          "type": "uint256"
        }
      ],
      "stateMutability": "nonpayable",
      "type": "function"
    }
  ],
  "transactionHash": "0x5e3798132cb1a20acbbd11d2e9e0b02535297cd189d22511f2ba59e2cd9a2398",
  "args": [
    "0xe166774e1852edf6a7a8ff9b0ac245ad6e8c7753"
  ],
  "numDeployments": 2,
  "solcInputHash": "f02f32e34982e27401bd3d7ac31874df",
  "bytecode": "0x60c060405234801561001057600080fd5b506040516108b93803806108b983398101604081905261002f9161006b565b6001600160a01b0381166100565760405163d92e233d60e01b815260040160405180910390fd5b6001600160a01b03166080523360a05261009b565b60006020828403121561007d57600080fd5b81516001600160a01b038116811461009457600080fd5b9392505050565b60805160a0516107b46101056000396000818160d30152818161017d0152818161024e015281816102ab015281816103a8015281816104520152818161049b015261056c015260008181610112015281816101bd015281816103d301526104db01526107b46000f3fe608060405234801561001057600080fd5b50600436106100885760003560e01c80638da5cb5b1161005b5780638da5cb5b146100ce57806398fecc0f1461010d57806399b0d6d014610134578063afc980401461016857600080fd5b806373d1ff5a1461008d5780638752be67146100a8578063887d0e32146100bd5780638bc7e70b146100c6575b600080fd5b610095610170565b6040519081526020015b60405180910390f35b6100bb6100b63660046105be565b6102a0565b005b61009560005481565b610095610391565b6100f57f000000000000000000000000000000000000000000000000000000000000000081565b6040516001600160a01b03909116815260200161009f565b6100f57f000000000000000000000000000000000000000000000000000000000000000081565b6100f5610142366004610663565b80516020818301810180516001825292820191909301209152546001600160a01b031681565b610095610445565b6000336001600160a01b037f000000000000000000000000000000000000000000000000000000000000000016146101bb576040516330cd747160e01b815260040160405180910390fd5b7f00000000000000000000000000000000000000000000000000000000000000006001600160a01b03166349d10b646040518163ffffffff1660e01b81526004016020604051808303816000875af115801561021b573d6000803e3d6000fd5b505050506040513d601f19601f8201168201806040525081019061023f9190610714565b600081815560405191925030917f00000000000000000000000000000000000000000000000000000000000000006001600160a01b03169184917f1236e2ada91ade9b0348a0ffc0320b455214e4cf7d2d89ceb72eefb74f91c3df9190a490565b336001600160a01b037f000000000000000000000000000000000000000000000000000000000000000016146102e9576040516330cd747160e01b815260040160405180910390fd5b6001600160a01b0381166103105760405163d92e233d60e01b815260040160405180910390fd5b806001848460405161032392919061072d565b90815260405190819003602001812080546001600160a01b03939093166001600160a01b0319909316929092179091557febcfeb887c9fe4eaee3b330008d80b3d2c92a4fd53a9ba188170c974e31278e8906103849085908590859061073d565b60405180910390a1505050565b6040516370b131c360e11b81526001600160a01b037f0000000000000000000000000000000000000000000000000000000000000000811660048301526000917f00000000000000000000000000000000000000000000000000000000000000009091169063e162638690602401602060405180830381865afa15801561041c573d6000803e3d6000fd5b505050506040513d601f19601f820116820180604052508101906104409190610714565b905090565b6000336001600160a01b037f00000000000000000000000000000000000000000000000000000000000000001614610490576040516330cd747160e01b815260040160405180910390fd5b326001600160a01b037f000000000000000000000000000000000000000000000000000000000000000016146104d9576040516303602a5960e51b815260040160405180910390fd5b7f00000000000000000000000000000000000000000000000000000000000000006001600160a01b031663afc980406040518163ffffffff1660e01b81526004016020604051808303816000875af1158015610539573d6000803e3d6000fd5b505050506040513d601f19601f8201168201806040525081019061055d9190610714565b600081815560405191925030917f00000000000000000000000000000000000000000000000000000000000000006001600160a01b03169184917ff2aea2f19e2f4ac2d2de8a6002f987b7886a5ed9b5d3c459f1ef2f07da249b829190a490565b6000806000604084860312156105d357600080fd5b833567ffffffffffffffff808211156105eb57600080fd5b818601915086601f8301126105ff57600080fd5b81358181111561060e57600080fd5b87602082850101111561062057600080fd5b602092830195509350508401356001600160a01b038116811461064257600080fd5b809150509250925092565b634e487b7160e01b600052604160045260246000fd5b60006020828403121561067557600080fd5b813567ffffffffffffffff8082111561068d57600080fd5b818401915084601f8301126106a157600080fd5b8135818111156106b3576106b361064d565b604051601f8201601f19908116603f011681019083821181831017156106db576106db61064d565b816040528281528760208487010111156106f457600080fd5b826020860160208301376000928101602001929092525095945050505050565b60006020828403121561072657600080fd5b5051919050565b8183823760009101908152919050565b6040815282604082015282846060830137600060608483018101919091526001600160a01b03929092166020820152601f909201601f19169091010191905056fea2646970667358221220fd2e036e98a4d9c99ec8353883f4e6bb76d0072a40cf85aa6b6b72e62a3304ac64736f6c63430008140033",
  "devdoc": {
    "kind": "dev",
    "methods": {},
    "version": 1
  },
  "userdoc": {
    "kind": "user",
    "methods": {
      "broadcast()": {
        "notice": "Chapter 1: calls MaxExtract.broadcast() and stores the returned sectorId. Requirements: - Must be triggered by the same account that bought into the game. - Enforced by requiring tx.origin == owner and msg.sender == owner (direct EOA call)."
      },
      "owner()": {
        "notice": "The buy-in EOA that deployed this registry (must match tx.origin in protocol flow)"
      },
      "sectorIdFromCore()": {
        "notice": "Convenience: read sector directly from MaxExtract mapping (helps debugging)"
      },
      "setModule(string,address)": {
        "notice": "Add/replace a module contract address (credentials, staking, fuel, etc.)"
      },
      "updateRegistryOnMaxExtract()": {
        "notice": "If you deploy a NEW registry later, call this from the NEW registry (spec mentions updateRegistry()). This wrapper exists so you can update via the registry itself."
      }
    },
    "version": 1
  },
  "storageLayout": {
    "storage": [
      {
        "astId": 28,
        "contract": "contracts/SectorRegistry.sol:SectorRegistry",
        "label": "sectorId",
        "offset": 0,
        "slot": "0",
        "type": "t_uint256"
      },
      {
        "astId": 32,
        "contract": "contracts/SectorRegistry.sol:SectorRegistry",
        "label": "modules",
        "offset": 0,
        "slot": "1",
        "type": "t_mapping(t_string_memory_ptr,t_address)"
      }
    ],
    "types": {
      "t_address": {
        "encoding": "inplace",
        "label": "address",
        "numberOfBytes": "20"
      },
      "t_mapping(t_string_memory_ptr,t_address)": {
        "encoding": "mapping",
        "key": "t_string_memory_ptr",
        "label": "mapping(string => address)",
        "numberOfBytes": "32",
        "value": "t_address"
      },
      "t_string_memory_ptr": {
        "encoding": "bytes",
        "label": "string",
        "numberOfBytes": "32"
      },
      "t_uint256": {
        "encoding": "inplace",
        "label": "uint256",
        "numberOfBytes": "32"
      }
    }
  }
}